{
  "contractName": "World",
  "abi": [
    {
      "inputs": [
        {
          "internalType": "contract Token",
          "name": "_token",
          "type": "address"
        }
      ],
      "stateMutability": "nonpayable",
      "type": "constructor"
    },
    {
      "anonymous": false,
      "inputs": [
        {
          "indexed": true,
          "internalType": "address",
          "name": "owner",
          "type": "address"
        },
        {
          "indexed": true,
          "internalType": "address",
          "name": "approved",
          "type": "address"
        },
        {
          "indexed": true,
          "internalType": "uint256",
          "name": "tokenId",
          "type": "uint256"
        }
      ],
      "name": "Approval",
      "type": "event"
    },
    {
      "anonymous": false,
      "inputs": [
        {
          "indexed": true,
          "internalType": "address",
          "name": "owner",
          "type": "address"
        },
        {
          "indexed": true,
          "internalType": "address",
          "name": "operator",
          "type": "address"
        },
        {
          "indexed": false,
          "internalType": "bool",
          "name": "approved",
          "type": "bool"
        }
      ],
      "name": "ApprovalForAll",
      "type": "event"
    },
    {
      "anonymous": false,
      "inputs": [
        {
          "indexed": true,
          "internalType": "address",
          "name": "previousOwner",
          "type": "address"
        },
        {
          "indexed": true,
          "internalType": "address",
          "name": "newOwner",
          "type": "address"
        }
      ],
      "name": "OwnershipTransferred",
      "type": "event"
    },
    {
      "anonymous": false,
      "inputs": [
        {
          "indexed": true,
          "internalType": "address",
          "name": "from",
          "type": "address"
        },
        {
          "indexed": true,
          "internalType": "address",
          "name": "to",
          "type": "address"
        },
        {
          "indexed": true,
          "internalType": "uint256",
          "name": "tokenId",
          "type": "uint256"
        }
      ],
      "name": "Transfer",
      "type": "event"
    },
    {
      "inputs": [
        {
          "internalType": "address",
          "name": "to",
          "type": "address"
        },
        {
          "internalType": "uint256",
          "name": "tokenId",
          "type": "uint256"
        }
      ],
      "name": "approve",
      "outputs": [],
      "stateMutability": "nonpayable",
      "type": "function"
    },
    {
      "inputs": [
        {
          "internalType": "address",
          "name": "owner",
          "type": "address"
        }
      ],
      "name": "balanceOf",
      "outputs": [
        {
          "internalType": "uint256",
          "name": "",
          "type": "uint256"
        }
      ],
      "stateMutability": "view",
      "type": "function",
      "constant": true
    },
    {
      "inputs": [
        {
          "internalType": "uint256",
          "name": "tokenId",
          "type": "uint256"
        }
      ],
      "name": "getApproved",
      "outputs": [
        {
          "internalType": "address",
          "name": "",
          "type": "address"
        }
      ],
      "stateMutability": "view",
      "type": "function",
      "constant": true
    },
    {
      "inputs": [
        {
          "internalType": "address",
          "name": "owner",
          "type": "address"
        },
        {
          "internalType": "address",
          "name": "operator",
          "type": "address"
        }
      ],
      "name": "isApprovedForAll",
      "outputs": [
        {
          "internalType": "bool",
          "name": "",
          "type": "bool"
        }
      ],
      "stateMutability": "view",
      "type": "function",
      "constant": true
    },
    {
      "inputs": [],
      "name": "name",
      "outputs": [
        {
          "internalType": "string",
          "name": "",
          "type": "string"
        }
      ],
      "stateMutability": "view",
      "type": "function",
      "constant": true
    },
    {
      "inputs": [],
      "name": "owner",
      "outputs": [
        {
          "internalType": "address",
          "name": "",
          "type": "address"
        }
      ],
      "stateMutability": "view",
      "type": "function",
      "constant": true
    },
    {
      "inputs": [
        {
          "internalType": "uint256",
          "name": "tokenId",
          "type": "uint256"
        }
      ],
      "name": "ownerOf",
      "outputs": [
        {
          "internalType": "address",
          "name": "",
          "type": "address"
        }
      ],
      "stateMutability": "view",
      "type": "function",
      "constant": true
    },
    {
      "inputs": [],
      "name": "renounceOwnership",
      "outputs": [],
      "stateMutability": "nonpayable",
      "type": "function"
    },
    {
      "inputs": [
        {
          "internalType": "address",
          "name": "from",
          "type": "address"
        },
        {
          "internalType": "address",
          "name": "to",
          "type": "address"
        },
        {
          "internalType": "uint256",
          "name": "tokenId",
          "type": "uint256"
        }
      ],
      "name": "safeTransferFrom",
      "outputs": [],
      "stateMutability": "nonpayable",
      "type": "function"
    },
    {
      "inputs": [
        {
          "internalType": "address",
          "name": "from",
          "type": "address"
        },
        {
          "internalType": "address",
          "name": "to",
          "type": "address"
        },
        {
          "internalType": "uint256",
          "name": "tokenId",
          "type": "uint256"
        },
        {
          "internalType": "bytes",
          "name": "data",
          "type": "bytes"
        }
      ],
      "name": "safeTransferFrom",
      "outputs": [],
      "stateMutability": "nonpayable",
      "type": "function"
    },
    {
      "inputs": [
        {
          "internalType": "address",
          "name": "operator",
          "type": "address"
        },
        {
          "internalType": "bool",
          "name": "approved",
          "type": "bool"
        }
      ],
      "name": "setApprovalForAll",
      "outputs": [],
      "stateMutability": "nonpayable",
      "type": "function"
    },
    {
      "inputs": [
        {
          "internalType": "bytes4",
          "name": "interfaceId",
          "type": "bytes4"
        }
      ],
      "name": "supportsInterface",
      "outputs": [
        {
          "internalType": "bool",
          "name": "",
          "type": "bool"
        }
      ],
      "stateMutability": "view",
      "type": "function",
      "constant": true
    },
    {
      "inputs": [],
      "name": "symbol",
      "outputs": [
        {
          "internalType": "string",
          "name": "",
          "type": "string"
        }
      ],
      "stateMutability": "view",
      "type": "function",
      "constant": true
    },
    {
      "inputs": [
        {
          "internalType": "uint256",
          "name": "tokenId",
          "type": "uint256"
        }
      ],
      "name": "tokenURI",
      "outputs": [
        {
          "internalType": "string",
          "name": "",
          "type": "string"
        }
      ],
      "stateMutability": "view",
      "type": "function",
      "constant": true
    },
    {
      "inputs": [
        {
          "internalType": "address",
          "name": "from",
          "type": "address"
        },
        {
          "internalType": "address",
          "name": "to",
          "type": "address"
        },
        {
          "internalType": "uint256",
          "name": "tokenId",
          "type": "uint256"
        }
      ],
      "name": "transferFrom",
      "outputs": [],
      "stateMutability": "nonpayable",
      "type": "function"
    },
    {
      "inputs": [
        {
          "internalType": "address",
          "name": "newOwner",
          "type": "address"
        }
      ],
      "name": "transferOwnership",
      "outputs": [],
      "stateMutability": "nonpayable",
      "type": "function"
    },
    {
      "inputs": [
        {
          "internalType": "string",
          "name": "landId",
          "type": "string"
        },
        {
          "internalType": "uint256",
          "name": "price",
          "type": "uint256"
        }
      ],
      "name": "mint",
      "outputs": [],
      "stateMutability": "nonpayable",
      "type": "function"
    },
    {
      "inputs": [
        {
          "internalType": "string",
          "name": "landId",
          "type": "string"
        }
      ],
      "name": "checkIfMinted",
      "outputs": [
        {
          "internalType": "bool",
          "name": "",
          "type": "bool"
        }
      ],
      "stateMutability": "view",
      "type": "function",
      "constant": true
    },
    {
      "inputs": [
        {
          "components": [
            {
              "internalType": "address",
              "name": "owner",
              "type": "address"
            },
            {
              "internalType": "uint256",
              "name": "tokenId",
              "type": "uint256"
            },
            {
              "internalType": "string",
              "name": "landId",
              "type": "string"
            },
            {
              "internalType": "uint256",
              "name": "price",
              "type": "uint256"
            }
          ],
          "internalType": "struct World.Land",
          "name": "land",
          "type": "tuple"
        }
      ],
      "name": "setLand",
      "outputs": [],
      "stateMutability": "nonpayable",
      "type": "function"
    },
    {
      "inputs": [
        {
          "internalType": "string",
          "name": "landId",
          "type": "string"
        },
        {
          "internalType": "uint256",
          "name": "price",
          "type": "uint256"
        }
      ],
      "name": "updateLandPrice",
      "outputs": [],
      "stateMutability": "nonpayable",
      "type": "function"
    },
    {
      "inputs": [
        {
          "internalType": "string",
          "name": "landId",
          "type": "string"
        }
      ],
      "name": "getOwnerAddress",
      "outputs": [
        {
          "internalType": "address",
          "name": "",
          "type": "address"
        }
      ],
      "stateMutability": "view",
      "type": "function",
      "constant": true
    },
    {
      "inputs": [],
      "name": "getWorldOwnerAddress",
      "outputs": [
        {
          "internalType": "address",
          "name": "",
          "type": "address"
        }
      ],
      "stateMutability": "view",
      "type": "function",
      "constant": true
    },
    {
      "inputs": [],
      "name": "getOwners",
      "outputs": [
        {
          "components": [
            {
              "internalType": "address",
              "name": "owner",
              "type": "address"
            },
            {
              "internalType": "uint256",
              "name": "tokenId",
              "type": "uint256"
            },
            {
              "internalType": "string",
              "name": "landId",
              "type": "string"
            },
            {
              "internalType": "uint256",
              "name": "price",
              "type": "uint256"
            }
          ],
          "internalType": "struct World.Land[]",
          "name": "",
          "type": "tuple[]"
        }
      ],
      "stateMutability": "view",
      "type": "function",
      "constant": true
    },
    {
      "inputs": [
        {
          "internalType": "string",
          "name": "landId",
          "type": "string"
        },
        {
          "internalType": "address",
          "name": "owner",
          "type": "address"
        }
      ],
      "name": "transferLand",
      "outputs": [
        {
          "internalType": "bool",
          "name": "",
          "type": "bool"
        }
      ],
      "stateMutability": "payable",
      "type": "function",
      "payable": true
    }
  ],
  "bytecode": "0x60806040523480156200001157600080fd5b50604051620024a2380380620024a28339810160408190526200003491620001ff565b6040518060400160405280600481526020016313185b9960e21b815250604051806040016040528060048152602001631310539160e21b81525081600090805190602001906200008692919062000159565b5080516200009c90600190602084019062000159565b505050620000b9620000b36200010360201b60201c565b62000107565b600880546001600160a01b0319166001600160a01b038316179055620000dc3390565b600980546001600160a01b0319166001600160a01b0392909216919091179055506200026e565b3390565b600680546001600160a01b038381166001600160a01b0319831681179093556040519116919082907f8be0079c531659141344cd1fd0a4f28419497f9722a3daafe3b4186f6b6457e090600090a35050565b828054620001679062000231565b90600052602060002090601f0160209004810192826200018b5760008555620001d6565b82601f10620001a657805160ff1916838001178555620001d6565b82800160010185558215620001d6579182015b82811115620001d6578251825591602001919060010190620001b9565b50620001e4929150620001e8565b5090565b5b80821115620001e45760008155600101620001e9565b6000602082840312156200021257600080fd5b81516001600160a01b03811681146200022a57600080fd5b9392505050565b600181811c908216806200024657607f821691505b602082108114156200026857634e487b7160e01b600052602260045260246000fd5b50919050565b612224806200027e6000396000f3fe60806040526004361061014b5760003560e01c806395d89b41116100b6578063d0bdc0c51161006f578063d0bdc0c5146103b9578063e67fd29a146103d9578063e7310755146103f9578063e985e9c51461040c578063f2fde38b14610455578063f3efc53e1461047557600080fd5b806395d89b4114610302578063a0e67e2b14610317578063a22cb46514610339578063b88d4fde14610359578063b99cd3b014610379578063c87b56dd1461039957600080fd5b806323b872dd1161010857806323b872dd1461024157806342842e0e146102615780636352211e1461028157806370a08231146102a1578063715018a6146102cf5780638da5cb5b146102e457600080fd5b806301ffc9a714610150578063056b01ce1461018557806306fdde03146101a7578063081812fc146101c9578063095ea7b3146102015780631d170e7c14610221575b600080fd5b34801561015c57600080fd5b5061017061016b3660046118ed565b610493565b60405190151581526020015b60405180910390f35b34801561019157600080fd5b506101a56101a03660046119b6565b6104e5565b005b3480156101b357600080fd5b506101bc610604565b60405161017c9190611a53565b3480156101d557600080fd5b506101e96101e4366004611a66565b610696565b6040516001600160a01b03909116815260200161017c565b34801561020d57600080fd5b506101a561021c366004611a9b565b6106bd565b34801561022d57600080fd5b506101e961023c366004611ac5565b6107ce565b34801561024d57600080fd5b506101a561025c366004611afa565b6107ff565b34801561026d57600080fd5b506101a561027c366004611afa565b610830565b34801561028d57600080fd5b506101e961029c366004611a66565b61084b565b3480156102ad57600080fd5b506102c16102bc366004611b36565b6108ab565b60405190815260200161017c565b3480156102db57600080fd5b506101a5610931565b3480156102f057600080fd5b506006546001600160a01b03166101e9565b34801561030e57600080fd5b506101bc610945565b34801561032357600080fd5b5061032c610954565b60405161017c9190611b51565b34801561034557600080fd5b506101a5610354366004611bf6565b610b25565b34801561036557600080fd5b506101a5610374366004611c2d565b610b34565b34801561038557600080fd5b506101a56103943660046119b6565b610b6c565b3480156103a557600080fd5b506101bc6103b4366004611a66565b610c1a565b3480156103c557600080fd5b506101706103d4366004611ac5565b610c8e565b3480156103e557600080fd5b506101a56103f4366004611ca9565b610d14565b610170610407366004611d54565b610e27565b34801561041857600080fd5b50610170610427366004611da2565b6001600160a01b03918216600090815260056020908152604080832093909416825291909152205460ff1690565b34801561046157600080fd5b506101a5610470366004611b36565b610ff1565b34801561048157600080fd5b506009546001600160a01b03166101e9565b60006001600160e01b031982166380ac58cd60e01b14806104c457506001600160e01b03198216635b5e139f60e01b145b806104df57506301ffc9a760e01b6001600160e01b03198316145b92915050565b6104ed61106a565b6009546001600160a01b0316336001600160a01b0316146105555760405162461bcd60e51b815260206004820152601f60248201527f4f6e6c7920776f726c64206f776e65722063616e206d696e74206c616e64730060448201526064015b60405180910390fd5b61055e82610c8e565b156105a25760405162461bcd60e51b815260206004820152601460248201527313185b99081a185cc81899595b881b5a5b9d195960621b604482015260640161054c565b6105b0600780546001019055565b60006105bb60075490565b90506105c733826110c4565b6105ff60405180608001604052806105dc3390565b6001600160a01b0316815260200183815260200185815260200184815250610d14565b505050565b60606000805461061390611dcc565b80601f016020809104026020016040519081016040528092919081815260200182805461063f90611dcc565b801561068c5780601f106106615761010080835404028352916020019161068c565b820191906000526020600020905b81548152906001019060200180831161066f57829003601f168201915b5050505050905090565b60006106a182611206565b506000908152600460205260409020546001600160a01b031690565b60006106c88261084b565b9050806001600160a01b0316836001600160a01b031614156107365760405162461bcd60e51b815260206004820152602160248201527f4552433732313a20617070726f76616c20746f2063757272656e74206f776e656044820152603960f91b606482015260840161054c565b336001600160a01b038216148061075257506107528133610427565b6107c45760405162461bcd60e51b815260206004820152603e60248201527f4552433732313a20617070726f76652063616c6c6572206973206e6f7420746f60448201527f6b656e206f776e6572206e6f7220617070726f76656420666f7220616c6c0000606482015260840161054c565b6105ff8383611265565b6000600b826040516107e09190611e07565b908152604051908190036020019020546001600160a01b031692915050565b61080933826112d3565b6108255760405162461bcd60e51b815260040161054c90611e23565b6105ff838383611352565b6105ff83838360405180602001604052806000815250610b34565b6000818152600260205260408120546001600160a01b0316806104df5760405162461bcd60e51b8152602060048201526018602482015277115490cdcc8c4e881a5b9d985b1a59081d1bdad95b88125160421b604482015260640161054c565b60006001600160a01b0382166109155760405162461bcd60e51b815260206004820152602960248201527f4552433732313a2061646472657373207a65726f206973206e6f7420612076616044820152683634b21037bbb732b960b91b606482015260840161054c565b506001600160a01b031660009081526003602052604090205490565b61093961106a565b61094360006114ee565b565b60606001805461061390611dcc565b6060600061096160075490565b905060008167ffffffffffffffff81111561097e5761097e61190a565b6040519080825280602002602001820160405280156109e357816020015b6109d0604051806080016040528060006001600160a01b031681526020016000815260200160608152602001600081525090565b81526020019060019003908161099c5790505b50905060005b82811015610b1e57600b600a6000610a02846001611e87565b8152602001908152602001600020604051610a1d9190611e9f565b90815260408051918290036020908101832060808401835280546001600160a01b031684526001810154918401919091526002810180549192840191610a6290611dcc565b80601f0160208091040260200160405190810160405280929190818152602001828054610a8e90611dcc565b8015610adb5780601f10610ab057610100808354040283529160200191610adb565b820191906000526020600020905b815481529060010190602001808311610abe57829003601f168201915b50505050508152602001600382015481525050828281518110610b0057610b00611f3b565b60200260200101819052508080610b1690611f51565b9150506109e9565b5092915050565b610b30338383611540565b5050565b610b3e33836112d3565b610b5a5760405162461bcd60e51b815260040161054c90611e23565b610b668484848461160f565b50505050565b600b82604051610b7c9190611e07565b908152604051908190036020019020546001600160a01b0316610b9c3390565b6001600160a01b031614610bf25760405162461bcd60e51b815260206004820152601e60248201527f4f6e6c79206c616e64206f776e65722063616e20656469742070726963650000604482015260640161054c565b80600b83604051610c039190611e07565b908152604051908190036020019020600301555050565b6060610c2582611206565b6000610c3c60408051602081019091526000815290565b90506000815111610c5c5760405180602001604052806000815250610c87565b80610c6684611642565b604051602001610c77929190611f6c565b6040516020818303038152906040525b9392505050565b600081604051602001610ca19190611e07565b60405160208183030381529060405280519060200120600b83604051610cc79190611e07565b9081526020016040518091039020600201604051602001610ce89190611e9f565b604051602081830303815290604052805190602001201415610d0c57506001919050565b506000919050565b610d3981602001516000908152600260205260409020546001600160a01b0316151590565b610d855760405162461bcd60e51b815260206004820152601d60248201527f4c616e6420736574206f66206e6f6e6578697374656e7420746f6b656e000000604482015260640161054c565b80600b8260400151604051610d9a9190611e07565b9081526040805160209281900383019020835181546001600160a01b0319166001600160a01b039091161781558383015160018201559083015180519192610dea9260028501929091019061183e565b50606082015181600301559050508060400151600a6000836020015181526020019081526020016000209080519060200190610b3092919061183e565b600080336001600160a01b0384161415610e8f5760405162461bcd60e51b8152602060048201526024808201527f596f752063616e6e6f74207472616e73666572206c616e6420746f20796f757260448201526339b2b63360e11b606482015260840161054c565b6000600b85604051610ea19190611e07565b9081526040519081900360200190206008549091506001600160a01b03166323b872dd610ecb3390565b6008546040805163313ce56760e01b8152905189926001600160a01b03169163313ce5679160048083019260209291908290030181865afa158015610f14573d6000803e3d6000fd5b505050506040513d601f19601f82011682018060405250810190610f389190611f9b565b610f4390600a6120a2565b8560030154610f5291906120b1565b6040516001600160e01b031960e086901b1681526001600160a01b03938416600482015292909116602483015260448201526064016020604051808303816000875af1158015610fa6573d6000803e3d6000fd5b505050506040513d601f19601f82011682018060405250810190610fca91906120d0565b50610fda84338360010154611352565b80546001600160a01b031916331790559392505050565b610ff961106a565b6001600160a01b03811661105e5760405162461bcd60e51b815260206004820152602660248201527f4f776e61626c653a206e6577206f776e657220697320746865207a65726f206160448201526564647265737360d01b606482015260840161054c565b611067816114ee565b50565b6006546001600160a01b031633146109435760405162461bcd60e51b815260206004820181905260248201527f4f776e61626c653a2063616c6c6572206973206e6f7420746865206f776e6572604482015260640161054c565b6001600160a01b03821661111a5760405162461bcd60e51b815260206004820181905260248201527f4552433732313a206d696e7420746f20746865207a65726f2061646472657373604482015260640161054c565b6000818152600260205260409020546001600160a01b03161561117f5760405162461bcd60e51b815260206004820152601c60248201527f4552433732313a20746f6b656e20616c7265616479206d696e74656400000000604482015260640161054c565b6001600160a01b03821660009081526003602052604081208054600192906111a8908490611e87565b909155505060008181526002602052604080822080546001600160a01b0319166001600160a01b03861690811790915590518392907fddf252ad1be2c89b69c2b068fc378daa952ba7f163c4a11628f55a4df523b3ef908290a45050565b6000818152600260205260409020546001600160a01b03166110675760405162461bcd60e51b8152602060048201526018602482015277115490cdcc8c4e881a5b9d985b1a59081d1bdad95b88125160421b604482015260640161054c565b600081815260046020526040902080546001600160a01b0319166001600160a01b038416908117909155819061129a8261084b565b6001600160a01b03167f8c5be1e5ebec7d5bd14f71427d1e84f3dd0314c0f7b2291e5b200ac8c7c3b92560405160405180910390a45050565b6000806112df8361084b565b9050806001600160a01b0316846001600160a01b0316148061132657506001600160a01b0380821660009081526005602090815260408083209388168352929052205460ff165b8061134a5750836001600160a01b031661133f84610696565b6001600160a01b0316145b949350505050565b826001600160a01b03166113658261084b565b6001600160a01b0316146113c95760405162461bcd60e51b815260206004820152602560248201527f4552433732313a207472616e736665722066726f6d20696e636f72726563742060448201526437bbb732b960d91b606482015260840161054c565b6001600160a01b03821661142b5760405162461bcd60e51b8152602060048201526024808201527f4552433732313a207472616e7366657220746f20746865207a65726f206164646044820152637265737360e01b606482015260840161054c565b611436600082611265565b6001600160a01b038316600090815260036020526040812080546001929061145f9084906120ed565b90915550506001600160a01b038216600090815260036020526040812080546001929061148d908490611e87565b909155505060008181526002602052604080822080546001600160a01b0319166001600160a01b0386811691821790925591518493918716917fddf252ad1be2c89b69c2b068fc378daa952ba7f163c4a11628f55a4df523b3ef91a4505050565b600680546001600160a01b038381166001600160a01b0319831681179093556040519116919082907f8be0079c531659141344cd1fd0a4f28419497f9722a3daafe3b4186f6b6457e090600090a35050565b816001600160a01b0316836001600160a01b031614156115a25760405162461bcd60e51b815260206004820152601960248201527f4552433732313a20617070726f766520746f2063616c6c657200000000000000604482015260640161054c565b6001600160a01b03838116600081815260056020908152604080832094871680845294825291829020805460ff191686151590811790915591519182527f17307eab39ab6107e8899845ad3d59bd9653f200f220920489ca2b5937696c31910160405180910390a3505050565b61161a848484611352565b61162684848484611740565b610b665760405162461bcd60e51b815260040161054c90612104565b6060816116665750506040805180820190915260018152600360fc1b602082015290565b8160005b8115611690578061167a81611f51565b91506116899050600a8361216c565b915061166a565b60008167ffffffffffffffff8111156116ab576116ab61190a565b6040519080825280601f01601f1916602001820160405280156116d5576020820181803683370190505b5090505b841561134a576116ea6001836120ed565b91506116f7600a86612180565b611702906030611e87565b60f81b81838151811061171757611717611f3b565b60200101906001600160f81b031916908160001a905350611739600a8661216c565b94506116d9565b60006001600160a01b0384163b1561183357604051630a85bd0160e11b81526001600160a01b0385169063150b7a0290611784903390899088908890600401612194565b6020604051808303816000875af19250505080156117bf575060408051601f3d908101601f191682019092526117bc918101906121d1565b60015b611819573d8080156117ed576040519150601f19603f3d011682016040523d82523d6000602084013e6117f2565b606091505b5080516118115760405162461bcd60e51b815260040161054c90612104565b805181602001fd5b6001600160e01b031916630a85bd0160e11b14905061134a565b506001949350505050565b82805461184a90611dcc565b90600052602060002090601f01602090048101928261186c57600085556118b2565b82601f1061188557805160ff19168380011785556118b2565b828001600101855582156118b2579182015b828111156118b2578251825591602001919060010190611897565b506118be9291506118c2565b5090565b5b808211156118be57600081556001016118c3565b6001600160e01b03198116811461106757600080fd5b6000602082840312156118ff57600080fd5b8135610c87816118d7565b634e487b7160e01b600052604160045260246000fd5b600067ffffffffffffffff8084111561193b5761193b61190a565b604051601f8501601f19908116603f011681019082821181831017156119635761196361190a565b8160405280935085815286868601111561197c57600080fd5b858560208301376000602087830101525050509392505050565b600082601f8301126119a757600080fd5b610c8783833560208501611920565b600080604083850312156119c957600080fd5b823567ffffffffffffffff8111156119e057600080fd5b6119ec85828601611996565b95602094909401359450505050565b60005b83811015611a165781810151838201526020016119fe565b83811115610b665750506000910152565b60008151808452611a3f8160208601602086016119fb565b601f01601f19169290920160200192915050565b602081526000610c876020830184611a27565b600060208284031215611a7857600080fd5b5035919050565b80356001600160a01b0381168114611a9657600080fd5b919050565b60008060408385031215611aae57600080fd5b611ab783611a7f565b946020939093013593505050565b600060208284031215611ad757600080fd5b813567ffffffffffffffff811115611aee57600080fd5b61134a84828501611996565b600080600060608486031215611b0f57600080fd5b611b1884611a7f565b9250611b2660208501611a7f565b9150604084013590509250925092565b600060208284031215611b4857600080fd5b610c8782611a7f565b60006020808301818452808551808352604092508286019150828160051b87010184880160005b83811015611bda57888303603f19018552815180516001600160a01b03168452878101518885015286810151608088860181905290611bb982870182611a27565b60609384015196909301959095525094870194925090860190600101611b78565b509098975050505050505050565b801515811461106757600080fd5b60008060408385031215611c0957600080fd5b611c1283611a7f565b91506020830135611c2281611be8565b809150509250929050565b60008060008060808587031215611c4357600080fd5b611c4c85611a7f565b9350611c5a60208601611a7f565b925060408501359150606085013567ffffffffffffffff811115611c7d57600080fd5b8501601f81018713611c8e57600080fd5b611c9d87823560208401611920565b91505092959194509250565b600060208284031215611cbb57600080fd5b813567ffffffffffffffff80821115611cd357600080fd5b9083019060808286031215611ce757600080fd5b604051608081018181108382111715611d0257611d0261190a565b604052611d0e83611a7f565b815260208301356020820152604083013582811115611d2c57600080fd5b611d3887828601611996565b6040830152506060830135606082015280935050505092915050565b60008060408385031215611d6757600080fd5b823567ffffffffffffffff811115611d7e57600080fd5b611d8a85828601611996565b925050611d9960208401611a7f565b90509250929050565b60008060408385031215611db557600080fd5b611dbe83611a7f565b9150611d9960208401611a7f565b600181811c90821680611de057607f821691505b60208210811415611e0157634e487b7160e01b600052602260045260246000fd5b50919050565b60008251611e198184602087016119fb565b9190910192915050565b6020808252602e908201527f4552433732313a2063616c6c6572206973206e6f7420746f6b656e206f776e6560408201526d1c881b9bdc88185c1c1c9bdd995960921b606082015260800190565b634e487b7160e01b600052601160045260246000fd5b60008219821115611e9a57611e9a611e71565b500190565b600080835481600182811c915080831680611ebb57607f831692505b6020808410821415611edb57634e487b7160e01b86526022600452602486fd5b818015611eef5760018114611f0057611f2d565b60ff19861689528489019650611f2d565b60008a81526020902060005b86811015611f255781548b820152908501908301611f0c565b505084890196505b509498975050505050505050565b634e487b7160e01b600052603260045260246000fd5b6000600019821415611f6557611f65611e71565b5060010190565b60008351611f7e8184602088016119fb565b835190830190611f928183602088016119fb565b01949350505050565b600060208284031215611fad57600080fd5b815160ff81168114610c8757600080fd5b600181815b80851115611ff9578160001904821115611fdf57611fdf611e71565b80851615611fec57918102915b93841c9390800290611fc3565b509250929050565b600082612010575060016104df565b8161201d575060006104df565b8160018114612033576002811461203d57612059565b60019150506104df565b60ff84111561204e5761204e611e71565b50506001821b6104df565b5060208310610133831016604e8410600b841016171561207c575081810a6104df565b6120868383611fbe565b806000190482111561209a5761209a611e71565b029392505050565b6000610c8760ff841683612001565b60008160001904831182151516156120cb576120cb611e71565b500290565b6000602082840312156120e257600080fd5b8151610c8781611be8565b6000828210156120ff576120ff611e71565b500390565b60208082526032908201527f4552433732313a207472616e7366657220746f206e6f6e20455243373231526560408201527131b2b4bb32b91034b6b83632b6b2b73a32b960711b606082015260800190565b634e487b7160e01b600052601260045260246000fd5b60008261217b5761217b612156565b500490565b60008261218f5761218f612156565b500690565b6001600160a01b03858116825284166020820152604081018390526080606082018190526000906121c790830184611a27565b9695505050505050565b6000602082840312156121e357600080fd5b8151610c87816118d756fea2646970667358221220fcc5630c421f305ec33e4146a54334883dcb4bf39a19e992b13583dba728572464736f6c634300080a0033",
  "immutableReferences": {},
  "source": "// SPDX-License-Identifier: MIT\r\npragma solidity ^0.8.0;\r\n\r\nimport '@openzeppelin/contracts/token/ERC721/ERC721.sol';\r\nimport \"@openzeppelin/contracts/utils/Counters.sol\";\r\nimport '@openzeppelin/contracts/access/Ownable.sol';\r\nimport './Token.sol';\r\n\r\ncontract World is ERC721, Ownable {\r\n    using Counters for Counters.Counter;\r\n\r\n    Counters.Counter private _tokenIds;\r\n    Token private token;\r\n    address private worldOwner;\r\n\r\n    struct Land {\r\n        address owner;\r\n        uint256 tokenId;\r\n        string landId;\r\n        uint256 price;\r\n    }\r\n\r\n    mapping(uint256 => string) private landIds;\r\n    mapping(string => Land) private mintedLands;\r\n\r\n    // ========================================\r\n\r\n    constructor(Token _token) ERC721('Land', 'LAND') Ownable() {\r\n        token = _token;\r\n        worldOwner = _msgSender();\r\n    }\r\n\r\n    // ========================================\r\n\r\n    function mint(string memory landId, uint256 price) public onlyOwner {\r\n        require(_msgSender() == worldOwner, 'Only world owner can mint lands');\r\n        require(checkIfMinted(landId) == false, 'Land has been minted');\r\n        \r\n        _tokenIds.increment();\r\n\r\n        uint256 tokenId = _tokenIds.current();\r\n        _mint(_msgSender(), tokenId);\r\n        \r\n        setLand(Land(_msgSender(), tokenId, landId, price));\r\n    }\r\n\r\n    // ========================================\r\n\r\n    function checkIfMinted(string memory landId) public view returns (bool) {\r\n        if(keccak256(abi.encodePacked(mintedLands[landId].landId)) == keccak256(abi.encodePacked(landId)))\r\n            return true;\r\n        return false;\r\n    }\r\n\r\n    // ========================================\r\n\r\n    function setLand(Land memory land) public {\r\n        require(_exists(land.tokenId), 'Land set of nonexistent token');\r\n        require(land.price >= 0, 'Land price cannot be negative number');\r\n\r\n        mintedLands[land.landId] = land;\r\n        landIds[land.tokenId] = land.landId;\r\n    }\r\n\r\n    // ========================================\r\n\r\n    function updateLandPrice(string memory landId, uint256 price) public {\r\n        require(_msgSender() == mintedLands[landId].owner, 'Only land owner can edit price');\r\n        require(price >= 0, 'Land price cannot be negative number');\r\n\r\n        mintedLands[landId].price = price;\r\n    }\r\n\r\n    // ========================================\r\n\r\n    function getOwnerAddress(string memory landId) public view returns (address) {\r\n        return mintedLands[landId].owner;\r\n    }\r\n\r\n    // ========================================\r\n\r\n    function getWorldOwnerAddress() public view returns (address) {    \r\n        return worldOwner;\r\n    }\r\n\r\n    // ========================================\r\n\r\n    function getOwners() public view returns (Land[] memory) {\r\n        uint256 len =  _tokenIds.current();\r\n        Land[] memory lands = new Land[](len);\r\n\r\n        for (uint256 i = 0; i < len; i++) {\r\n            lands[i] = mintedLands[landIds[i+1]];\r\n        }\r\n\r\n        return lands;\r\n    }\r\n\r\n    // ========================================\r\n\r\n    function transferLand(string memory landId, address owner) public payable returns (bool) {\r\n        bool didPurchase = false;\r\n        require(_msgSender() != owner, 'You cannot transfer land to yourself');\r\n\r\n        Land storage land = mintedLands[landId];\r\n\r\n        token.transferFrom(_msgSender(), owner, land.price * (10 ** token.decimals()));\r\n        _transfer(owner, _msgSender(), land.tokenId);\r\n\r\n        land.owner = _msgSender();\r\n\r\n        return didPurchase;\r\n    }\r\n}",
  "sourcePath": "C:\\Users\\pazna\\OneDrive\\Desktop\\project\\contracts\\World.sol",
  "compiler": {
    "name": "solc",
    "version": "0.8.10+commit.fc410830.Emscripten.clang"
  },
  "schemaVersion": "3.4.8",
  "updatedAt": "2022-07-28T17:54:11.598Z",
  "networkType": "ethereum",
  "devdoc": {
    "kind": "dev",
    "methods": {
      "approve(address,uint256)": {
        "details": "See {IERC721-approve}."
      },
      "balanceOf(address)": {
        "details": "See {IERC721-balanceOf}."
      },
      "getApproved(uint256)": {
        "details": "See {IERC721-getApproved}."
      },
      "isApprovedForAll(address,address)": {
        "details": "See {IERC721-isApprovedForAll}."
      },
      "name()": {
        "details": "See {IERC721Metadata-name}."
      },
      "owner()": {
        "details": "Returns the address of the current owner."
      },
      "ownerOf(uint256)": {
        "details": "See {IERC721-ownerOf}."
      },
      "renounceOwnership()": {
        "details": "Leaves the contract without owner. It will not be possible to call `onlyOwner` functions anymore. Can only be called by the current owner. NOTE: Renouncing ownership will leave the contract without an owner, thereby removing any functionality that is only available to the owner."
      },
      "safeTransferFrom(address,address,uint256)": {
        "details": "See {IERC721-safeTransferFrom}."
      },
      "safeTransferFrom(address,address,uint256,bytes)": {
        "details": "See {IERC721-safeTransferFrom}."
      },
      "setApprovalForAll(address,bool)": {
        "details": "See {IERC721-setApprovalForAll}."
      },
      "supportsInterface(bytes4)": {
        "details": "See {IERC165-supportsInterface}."
      },
      "symbol()": {
        "details": "See {IERC721Metadata-symbol}."
      },
      "tokenURI(uint256)": {
        "details": "See {IERC721Metadata-tokenURI}."
      },
      "transferFrom(address,address,uint256)": {
        "details": "See {IERC721-transferFrom}."
      },
      "transferOwnership(address)": {
        "details": "Transfers ownership of the contract to a new account (`newOwner`). Can only be called by the current owner."
      }
    },
    "version": 1
  },
  "userdoc": {
    "kind": "user",
    "methods": {},
    "version": 1
  }
}